{
  "contractName": "Employer",
  "abi": [
    {
      "inputs": [
        {
          "internalType": "string",
          "name": "username",
          "type": "string"
        }
      ],
      "stateMutability": "nonpayable",
      "type": "constructor"
    },
    {
      "anonymous": false,
      "inputs": [
        {
          "indexed": false,
          "internalType": "address",
          "name": "sender",
          "type": "address"
        },
        {
          "indexed": false,
          "internalType": "uint256",
          "name": "fundAmount",
          "type": "uint256"
        }
      ],
      "name": "FundsRecieved",
      "type": "event"
    },
    {
      "stateMutability": "payable",
      "type": "fallback"
    },
    {
      "inputs": [],
      "name": "employerUsername",
      "outputs": [
        {
          "internalType": "string",
          "name": "",
          "type": "string"
        }
      ],
      "stateMutability": "view",
      "type": "function"
    },
    {
      "inputs": [],
      "name": "owner",
      "outputs": [
        {
          "internalType": "address",
          "name": "",
          "type": "address"
        }
      ],
      "stateMutability": "view",
      "type": "function"
    },
    {
      "inputs": [
        {
          "internalType": "address",
          "name": "",
          "type": "address"
        }
      ],
      "name": "personsDeposits",
      "outputs": [
        {
          "internalType": "uint256",
          "name": "",
          "type": "uint256"
        }
      ],
      "stateMutability": "view",
      "type": "function"
    },
    {
      "stateMutability": "payable",
      "type": "receive"
    },
    {
      "inputs": [],
      "name": "deposit",
      "outputs": [],
      "stateMutability": "payable",
      "type": "function"
    },
    {
      "inputs": [],
      "name": "withDraw",
      "outputs": [],
      "stateMutability": "nonpayable",
      "type": "function"
    },
    {
      "inputs": [
        {
          "internalType": "address payable",
          "name": "_address",
          "type": "address"
        }
      ],
      "name": "sendFunds",
      "outputs": [],
      "stateMutability": "payable",
      "type": "function"
    },
    {
      "inputs": [
        {
          "internalType": "address",
          "name": "_storageAddress",
          "type": "address"
        },
        {
          "internalType": "address payable",
          "name": "_workerAddress",
          "type": "address"
        }
      ],
      "name": "fundsTransferToStorage",
      "outputs": [],
      "stateMutability": "payable",
      "type": "function"
    },
    {
      "inputs": [
        {
          "internalType": "address",
          "name": "_storageAddress",
          "type": "address"
        },
        {
          "internalType": "bool",
          "name": "_access",
          "type": "bool"
        }
      ],
      "name": "confirmRevenue",
      "outputs": [],
      "stateMutability": "nonpayable",
      "type": "function"
    }
  ],
  "bytecode": "0x60806040523480156200001157600080fd5b50604051620015b1380380620015b1833981810160405281019062000037919062000223565b336000806101000a81548173ffffffffffffffffffffffffffffffffffffffff021916908373ffffffffffffffffffffffffffffffffffffffff1602179055508060019081620000889190620004bf565b5050620005a6565b6000604051905090565b600080fd5b600080fd5b600080fd5b600080fd5b6000601f19601f8301169050919050565b7f4e487b7100000000000000000000000000000000000000000000000000000000600052604160045260246000fd5b620000f982620000ae565b810181811067ffffffffffffffff821117156200011b576200011a620000bf565b5b80604052505050565b60006200013062000090565b90506200013e8282620000ee565b919050565b600067ffffffffffffffff821115620001615762000160620000bf565b5b6200016c82620000ae565b9050602081019050919050565b60005b83811015620001995780820151818401526020810190506200017c565b60008484015250505050565b6000620001bc620001b68462000143565b62000124565b905082815260208101848484011115620001db57620001da620000a9565b5b620001e884828562000179565b509392505050565b600082601f830112620002085762000207620000a4565b5b81516200021a848260208601620001a5565b91505092915050565b6000602082840312156200023c576200023b6200009a565b5b600082015167ffffffffffffffff8111156200025d576200025c6200009f565b5b6200026b84828501620001f0565b91505092915050565b600081519050919050565b7f4e487b7100000000000000000000000000000000000000000000000000000000600052602260045260246000fd5b60006002820490506001821680620002c757607f821691505b602082108103620002dd57620002dc6200027f565b5b50919050565b60008190508160005260206000209050919050565b60006020601f8301049050919050565b600082821b905092915050565b600060088302620003477fffffffffffffffffffffffffffffffffffffffffffffffffffffffffffffffff8262000308565b62000353868362000308565b95508019841693508086168417925050509392505050565b6000819050919050565b6000819050919050565b6000620003a06200039a62000394846200036b565b62000375565b6200036b565b9050919050565b6000819050919050565b620003bc836200037f565b620003d4620003cb82620003a7565b84845462000315565b825550505050565b600090565b620003eb620003dc565b620003f8818484620003b1565b505050565b5b81811015620004205762000414600082620003e1565b600181019050620003fe565b5050565b601f8211156200046f576200043981620002e3565b6200044484620002f8565b8101602085101562000454578190505b6200046c6200046385620002f8565b830182620003fd565b50505b505050565b600082821c905092915050565b6000620004946000198460080262000474565b1980831691505092915050565b6000620004af838362000481565b9150826002028217905092915050565b620004ca8262000274565b67ffffffffffffffff811115620004e657620004e5620000bf565b5b620004f28254620002ae565b620004ff82828562000424565b600060209050601f83116001811462000537576000841562000522578287015190505b6200052e8582620004a1565b8655506200059e565b601f1984166200054786620002e3565b60005b8281101562000571578489015182556001820191506020850194506020810190506200054a565b868310156200059157848901516200058d601f89168262000481565b8355505b6001600288020188555050505b505050505050565b610ffb80620005b66000396000f3fe60806040526004361061007f5760003560e01c806398c85c731161004e57806398c85c7314610190578063cfe52bdd146101cd578063d0e30db0146101e9578063da368317146101f3576100bf565b80630fdb1c10146100fa5780633aa791d1146101115780638da5cb5b1461013a578063964fe5e514610165576100bf565b366100bf577ff6f2f45bd3eb780a1d109af5711b045983100a7d1e5a1b5fa5b9f1dd3debd06733346040516100b592919061098e565b60405180910390a1005b7ff6f2f45bd3eb780a1d109af5711b045983100a7d1e5a1b5fa5b9f1dd3debd06733346040516100f092919061098e565b60405180910390a1005b34801561010657600080fd5b5061010f61020f565b005b34801561011d57600080fd5b5061013860048036038101906101339190610a20565b6102e6565b005b34801561014657600080fd5b5061014f6104b3565b60405161015c9190610a60565b60405180910390f35b34801561017157600080fd5b5061017a6104d7565b6040516101879190610b0b565b60405180910390f35b34801561019c57600080fd5b506101b760048036038101906101b29190610b2d565b610565565b6040516101c49190610b5a565b60405180910390f35b6101e760048036038101906101e29190610bb3565b61057d565b005b6101f1610688565b005b61020d60048036038101906102089190610be0565b610719565b005b60008054906101000a900473ffffffffffffffffffffffffffffffffffffffff1673ffffffffffffffffffffffffffffffffffffffff163373ffffffffffffffffffffffffffffffffffffffff161461029d576040517f08c379a000000000000000000000000000000000000000000000000000000000815260040161029490610c92565b60405180910390fd5b3373ffffffffffffffffffffffffffffffffffffffff166108fc479081150290604051600060405180830381858888f193505050501580156102e3573d6000803e3d6000fd5b50565b60008054906101000a900473ffffffffffffffffffffffffffffffffffffffff1673ffffffffffffffffffffffffffffffffffffffff163373ffffffffffffffffffffffffffffffffffffffff1614610374576040517f08c379a000000000000000000000000000000000000000000000000000000000815260040161036b90610c92565b60405180910390fd5b60008273ffffffffffffffffffffffffffffffffffffffff168260405160240161039e9190610cc1565b6040516020818303038152906040527feeaecb77000000000000000000000000000000000000000000000000000000007bffffffffffffffffffffffffffffffffffffffffffffffffffffffff19166020820180517bffffffffffffffffffffffffffffffffffffffffffffffffffffffff83818316178352505050506040516104289190610d23565b6000604051808303816000865af19150503d8060008114610465576040519150601f19603f3d011682016040523d82523d6000602084013e61046a565b606091505b50509050806104ae576040517f08c379a00000000000000000000000000000000000000000000000000000000081526004016104a590610dac565b60405180910390fd5b505050565b60008054906101000a900473ffffffffffffffffffffffffffffffffffffffff1681565b600180546104e490610dfb565b80601f016020809104026020016040519081016040528092919081815260200182805461051090610dfb565b801561055d5780601f106105325761010080835404028352916020019161055d565b820191906000526020600020905b81548152906001019060200180831161054057829003601f168201915b505050505081565b60026020528060005260406000206000915090505481565b60008054906101000a900473ffffffffffffffffffffffffffffffffffffffff1673ffffffffffffffffffffffffffffffffffffffff163373ffffffffffffffffffffffffffffffffffffffff161461060b576040517f08c379a000000000000000000000000000000000000000000000000000000000815260040161060290610c92565b60405180910390fd5b60008173ffffffffffffffffffffffffffffffffffffffff166108fc349081150290604051600060405180830381858888f19350505050905080610684576040517f08c379a000000000000000000000000000000000000000000000000000000000815260040161067b90610e78565b60405180910390fd5b5050565b34600260003373ffffffffffffffffffffffffffffffffffffffff1673ffffffffffffffffffffffffffffffffffffffff16815260200190815260200160002060008282546106d79190610ec7565b925050819055507ff6f2f45bd3eb780a1d109af5711b045983100a7d1e5a1b5fa5b9f1dd3debd067333460405161070f92919061098e565b60405180910390a1565b60008054906101000a900473ffffffffffffffffffffffffffffffffffffffff1673ffffffffffffffffffffffffffffffffffffffff163373ffffffffffffffffffffffffffffffffffffffff16146107a7576040517f08c379a000000000000000000000000000000000000000000000000000000000815260040161079e90610c92565b60405180910390fd5b600034116107ea576040517f08c379a00000000000000000000000000000000000000000000000000000000081526004016107e190610f6d565b60405180910390fd5b6000808373ffffffffffffffffffffffffffffffffffffffff163461c35090853460405160240161081c929190610f9c565b6040516020818303038152906040527f47e7ef24000000000000000000000000000000000000000000000000000000007bffffffffffffffffffffffffffffffffffffffffffffffffffffffff19166020820180517bffffffffffffffffffffffffffffffffffffffffffffffffffffffff83818316178352505050506040516108a69190610d23565b600060405180830381858888f193505050503d80600081146108e4576040519150601f19603f3d011682016040523d82523d6000602084013e6108e9565b606091505b50915091508161092e576040517f08c379a000000000000000000000000000000000000000000000000000000000815260040161092590610e78565b60405180910390fd5b50505050565b600073ffffffffffffffffffffffffffffffffffffffff82169050919050565b600061095f82610934565b9050919050565b61096f81610954565b82525050565b6000819050919050565b61098881610975565b82525050565b60006040820190506109a36000830185610966565b6109b0602083018461097f565b9392505050565b600080fd5b6109c581610954565b81146109d057600080fd5b50565b6000813590506109e2816109bc565b92915050565b60008115159050919050565b6109fd816109e8565b8114610a0857600080fd5b50565b600081359050610a1a816109f4565b92915050565b60008060408385031215610a3757610a366109b7565b5b6000610a45858286016109d3565b9250506020610a5685828601610a0b565b9150509250929050565b6000602082019050610a756000830184610966565b92915050565b600081519050919050565b600082825260208201905092915050565b60005b83811015610ab5578082015181840152602081019050610a9a565b60008484015250505050565b6000601f19601f8301169050919050565b6000610add82610a7b565b610ae78185610a86565b9350610af7818560208601610a97565b610b0081610ac1565b840191505092915050565b60006020820190508181036000830152610b258184610ad2565b905092915050565b600060208284031215610b4357610b426109b7565b5b6000610b51848285016109d3565b91505092915050565b6000602082019050610b6f600083018461097f565b92915050565b6000610b8082610934565b9050919050565b610b9081610b75565b8114610b9b57600080fd5b50565b600081359050610bad81610b87565b92915050565b600060208284031215610bc957610bc86109b7565b5b6000610bd784828501610b9e565b91505092915050565b60008060408385031215610bf757610bf66109b7565b5b6000610c05858286016109d3565b9250506020610c1685828601610b9e565b9150509250929050565b7f6f6e6c79206f776e65722063616e2063616c6c20746869732066756e6374696f60008201527f6e00000000000000000000000000000000000000000000000000000000000000602082015250565b6000610c7c602183610a86565b9150610c8782610c20565b604082019050919050565b60006020820190508181036000830152610cab81610c6f565b9050919050565b610cbb816109e8565b82525050565b6000602082019050610cd66000830184610cb2565b92915050565b600081519050919050565b600081905092915050565b6000610cfd82610cdc565b610d078185610ce7565b9350610d17818560208601610a97565b80840191505092915050565b6000610d2f8284610cf2565b915081905092915050565b7f4661696c7572652c206163636573206f6e20726576656e756520646f6573277460008201527f206368616e676564000000000000000000000000000000000000000000000000602082015250565b6000610d96602883610a86565b9150610da182610d3a565b604082019050919050565b60006020820190508181036000830152610dc581610d89565b9050919050565b7f4e487b7100000000000000000000000000000000000000000000000000000000600052602260045260246000fd5b60006002820490506001821680610e1357607f821691505b602082108103610e2657610e25610dcc565b5b50919050565b7f4661696c7572652c2066756e6473206e6f742073656e74000000000000000000600082015250565b6000610e62601783610a86565b9150610e6d82610e2c565b602082019050919050565b60006020820190508181036000830152610e9181610e55565b9050919050565b7f4e487b7100000000000000000000000000000000000000000000000000000000600052601160045260246000fd5b6000610ed282610975565b9150610edd83610975565b9250828201905080821115610ef557610ef4610e98565b5b92915050565b7f63616e206e6f742065786368616e67652066756e64732077697468207468657260008201527f6f2076616c756500000000000000000000000000000000000000000000000000602082015250565b6000610f57602783610a86565b9150610f6282610efb565b604082019050919050565b60006020820190508181036000830152610f8681610f4a565b9050919050565b610f9681610b75565b82525050565b6000604082019050610fb16000830185610f8d565b610fbe602083018461097f565b939250505056fea264697066735822122012b69d0b068fd48f7039b3ed3d56648f63bf4342f23c3cd6078605f00e6319f864736f6c63430008110033",
  "immutableReferences": {},
  "source": "//SPDX-License-Identifier: MIT\r\npragma solidity ^0.8.17;\r\n\r\ncontract Employer {\r\n\r\n    address public owner;\r\n    string public employerUsername;\r\n    mapping(address => uint) public personsDeposits;\r\n\r\n    event FundsRecieved (\r\n        address sender,\r\n        uint256 fundAmount\r\n    );\r\n\r\n    modifier onlyOwner() {\r\n        require(msg.sender == owner,\"only owner can call this function\");\r\n        _;\r\n    }\r\n    \r\n\r\n    constructor(string memory username) public {\r\n        owner = msg.sender;\r\n        employerUsername = username;\r\n    }\r\n\r\n    fallback() external payable {\r\n        emit FundsRecieved(msg.sender,msg.value);\r\n    }\r\n\r\n    receive() external payable {\r\n        emit FundsRecieved(msg.sender,msg.value);\r\n    }\r\n\r\n    function deposit() external payable {\r\n        personsDeposits[msg.sender] += msg.value;\r\n        emit FundsRecieved(msg.sender,msg.value);\r\n    }\r\n\r\n    function withDraw() external onlyOwner {\r\n        payable(msg.sender).transfer(address(this).balance);\r\n    }\r\n\r\n    function sendFunds(address payable _address) external payable onlyOwner {\r\n        bool sent = _address.send(msg.value);\r\n        require(sent,\"Failure, funds not sent\");\r\n    }\r\n\r\n    function fundsTransferToStorage(address _storageAddress,address payable _workerAddress) public payable onlyOwner {\r\n        require(msg.value > 0,\"can not exchange funds with thero value\");\r\n\r\n        (bool sent,bytes memory data) = _storageAddress.call{value: msg.value,gas: 50000}(abi.encodeWithSignature(\"deposit(address,uint256)\",_workerAddress,msg.value));\r\n        require(sent,\"Failure, funds not sent\");\r\n    }\r\n\r\n    function confirmRevenue(address _storageAddress,bool _access) external onlyOwner {\r\n        (bool sent,) = _storageAddress.call(abi.encodeWithSignature(\"accessWithdraw(bool)\",_access));\r\n        require(sent,\"Failure, acces on revenue does't changed\");\r\n    }\r\n\r\n}\r\n\r\ncontract Storage {\r\n\r\n    address public owner;\r\n    mapping(address => WorkerRevenue) public storageDeposits;\r\n    uint256[] public deposits;\r\n\r\n    struct WorkerRevenue {\r\n        bool employerConfirm;\r\n        uint revenue;\r\n        address payable workerAddress;\r\n    }\r\n\r\n    event FundsRecieved (\r\n        address sender,\r\n        uint256 fundAmount\r\n    );\r\n\r\n    modifier onlyOwner() {\r\n        require(msg.sender == owner,\"only owner can call this function\");\r\n        _;\r\n    }\r\n\r\n    constructor() public {\r\n        owner = msg.sender;\r\n    }\r\n\r\n    fallback() external payable {\r\n        emit FundsRecieved(msg.sender,msg.value);\r\n    }\r\n\r\n    receive() external payable {\r\n        emit FundsRecieved(msg.sender,msg.value);\r\n\r\n    }\r\n\r\n    function accessWithdraw(bool _access) external {\r\n        storageDeposits[msg.sender].employerConfirm = _access;\r\n    }\r\n\r\n    function deposit(address payable _workerAddress,uint256 _revenue) external payable {\r\n        storageDeposits[msg.sender] = WorkerRevenue(false,storageDeposits[msg.sender].revenue + _revenue,_workerAddress);\r\n        deposits.push(_revenue);\r\n\r\n        emit FundsRecieved(msg.sender,msg.value);\r\n    }\r\n\r\n    function withDraw(address _employer) external payable {\r\n        WorkerRevenue storage workerRevenue = storageDeposits[_employer];\r\n        require(workerRevenue.workerAddress == msg.sender,\"you are not this employer's worker\");\r\n        require(workerRevenue.employerConfirm,\"you and employer won't reach consnsus yet, can't to witdraw funds\");\r\n        require(workerRevenue.revenue <= address(this).balance,\"not enought funds on contract, contact us on gmail example@gmail.com\");\r\n        require(workerRevenue.revenue > 0,\"you already withdraw your revenue\");\r\n        \r\n        storageDeposits[_employer] = WorkerRevenue(false,0,payable(msg.sender));\r\n        \r\n        workerRevenue.workerAddress.transfer(workerRevenue.revenue);\r\n    }\r\n\r\n    function withDrawByOwner(uint256 amount) external onlyOwner {\r\n        (bool sent,) = owner.call{value: amount,gas: 50000}(\"\");\r\n        require(sent,\"withdraw by owner failed\");\r\n    }\r\n}",
  "sourcePath": "C:\\Users\\4torn\\OneDrive\\Desktop\\cbde_assignment\\contracts\\FreelanceNegotiations.sol",
  "compiler": {
    "name": "solc",
    "version": "0.8.17+commit.8df45f5f.Emscripten.clang"
  },
  "schemaVersion": "3.4.10",
  "updatedAt": "2022-12-23T12:31:26.663Z",
  "networkType": "ethereum",
  "devdoc": {
    "kind": "dev",
    "methods": {},
    "version": 1
  },
  "userdoc": {
    "kind": "user",
    "methods": {},
    "version": 1
  }
}