{
  "contractName": "Storage",
  "abi": [
    {
      "inputs": [],
      "stateMutability": "nonpayable",
      "type": "constructor"
    },
    {
      "anonymous": false,
      "inputs": [
        {
          "indexed": false,
          "internalType": "address",
          "name": "sender",
          "type": "address"
        },
        {
          "indexed": false,
          "internalType": "uint256",
          "name": "fundAmount",
          "type": "uint256"
        }
      ],
      "name": "FundsRecieved",
      "type": "event"
    },
    {
      "stateMutability": "payable",
      "type": "fallback",
      "payable": true
    },
    {
      "inputs": [
        {
          "internalType": "uint256",
          "name": "",
          "type": "uint256"
        }
      ],
      "name": "deposits",
      "outputs": [
        {
          "internalType": "uint256",
          "name": "",
          "type": "uint256"
        }
      ],
      "stateMutability": "view",
      "type": "function",
      "constant": true
    },
    {
      "inputs": [],
      "name": "owner",
      "outputs": [
        {
          "internalType": "address",
          "name": "",
          "type": "address"
        }
      ],
      "stateMutability": "view",
      "type": "function",
      "constant": true
    },
    {
      "inputs": [
        {
          "internalType": "address",
          "name": "",
          "type": "address"
        }
      ],
      "name": "storageDeposits",
      "outputs": [
        {
          "internalType": "bool",
          "name": "employerConfirm",
          "type": "bool"
        },
        {
          "internalType": "uint256",
          "name": "revenue",
          "type": "uint256"
        },
        {
          "internalType": "address payable",
          "name": "workerAddress",
          "type": "address"
        }
      ],
      "stateMutability": "view",
      "type": "function",
      "constant": true
    },
    {
      "stateMutability": "payable",
      "type": "receive",
      "payable": true
    },
    {
      "inputs": [
        {
          "internalType": "bool",
          "name": "_access",
          "type": "bool"
        }
      ],
      "name": "accessWithdraw",
      "outputs": [],
      "stateMutability": "nonpayable",
      "type": "function"
    },
    {
      "inputs": [
        {
          "internalType": "address payable",
          "name": "_workerAddress",
          "type": "address"
        },
        {
          "internalType": "uint256",
          "name": "_revenue",
          "type": "uint256"
        }
      ],
      "name": "deposit",
      "outputs": [],
      "stateMutability": "payable",
      "type": "function",
      "payable": true
    },
    {
      "inputs": [
        {
          "internalType": "address",
          "name": "_employer",
          "type": "address"
        }
      ],
      "name": "withDraw",
      "outputs": [],
      "stateMutability": "payable",
      "type": "function",
      "payable": true
    },
    {
      "inputs": [
        {
          "internalType": "uint256",
          "name": "amount",
          "type": "uint256"
        }
      ],
      "name": "withDrawByOwner",
      "outputs": [],
      "stateMutability": "nonpayable",
      "type": "function"
    }
  ],
  "bytecode": "0x608060405234801561001057600080fd5b50336000806101000a81548173ffffffffffffffffffffffffffffffffffffffff021916908373ffffffffffffffffffffffffffffffffffffffff160217905550611053806100606000396000f3fe6080604052600436106100745760003560e01c8063b02c43d01161004e578063b02c43d014610152578063d9d0b9121461018f578063e80585e6146101b8578063eeaecb77146101f7576100b4565b80630a67d2c7146100ef57806347e7ef241461010b5780638da5cb5b14610127576100b4565b366100b4577ff6f2f45bd3eb780a1d109af5711b045983100a7d1e5a1b5fa5b9f1dd3debd06733346040516100aa929190610983565b60405180910390a1005b7ff6f2f45bd3eb780a1d109af5711b045983100a7d1e5a1b5fa5b9f1dd3debd06733346040516100e5929190610983565b60405180910390a1005b610109600480360381019061010491906109dd565b610220565b005b61012560048036038101906101209190610a74565b61052f565b005b34801561013357600080fd5b5061013c6106c9565b6040516101499190610ab4565b60405180910390f35b34801561015e57600080fd5b5061017960048036038101906101749190610acf565b6106ed565b6040516101869190610afc565b60405180910390f35b34801561019b57600080fd5b506101b660048036038101906101b19190610acf565b610711565b005b3480156101c457600080fd5b506101df60048036038101906101da91906109dd565b610875565b6040516101ee93929190610b41565b60405180910390f35b34801561020357600080fd5b5061021e60048036038101906102199190610ba4565b6108cc565b005b6000600160008373ffffffffffffffffffffffffffffffffffffffff1673ffffffffffffffffffffffffffffffffffffffff16815260200190815260200160002090503373ffffffffffffffffffffffffffffffffffffffff168160020160009054906101000a900473ffffffffffffffffffffffffffffffffffffffff1673ffffffffffffffffffffffffffffffffffffffff16146102f5576040517f08c379a00000000000000000000000000000000000000000000000000000000081526004016102ec90610c54565b60405180910390fd5b8060000160009054906101000a900460ff16610346576040517f08c379a000000000000000000000000000000000000000000000000000000000815260040161033d90610d0c565b60405180910390fd5b478160010154111561038d576040517f08c379a000000000000000000000000000000000000000000000000000000000815260040161038490610dc4565b60405180910390fd5b60008160010154116103d4576040517f08c379a00000000000000000000000000000000000000000000000000000000081526004016103cb90610e56565b60405180910390fd5b6040518060600160405280600015158152602001600081526020013373ffffffffffffffffffffffffffffffffffffffff16815250600160008473ffffffffffffffffffffffffffffffffffffffff1673ffffffffffffffffffffffffffffffffffffffff16815260200190815260200160002060008201518160000160006101000a81548160ff0219169083151502179055506020820151816001015560408201518160020160006101000a81548173ffffffffffffffffffffffffffffffffffffffff021916908373ffffffffffffffffffffffffffffffffffffffff1602179055509050508060020160009054906101000a900473ffffffffffffffffffffffffffffffffffffffff1673ffffffffffffffffffffffffffffffffffffffff166108fc82600101549081150290604051600060405180830381858888f1935050505015801561052a573d6000803e3d6000fd5b505050565b604051806060016040528060001515815260200182600160003373ffffffffffffffffffffffffffffffffffffffff1673ffffffffffffffffffffffffffffffffffffffff168152602001908152602001600020600101546105919190610ea5565b81526020018373ffffffffffffffffffffffffffffffffffffffff16815250600160003373ffffffffffffffffffffffffffffffffffffffff1673ffffffffffffffffffffffffffffffffffffffff16815260200190815260200160002060008201518160000160006101000a81548160ff0219169083151502179055506020820151816001015560408201518160020160006101000a81548173ffffffffffffffffffffffffffffffffffffffff021916908373ffffffffffffffffffffffffffffffffffffffff16021790555090505060028190806001815401808255809150506001900390600052602060002001600090919091909150557ff6f2f45bd3eb780a1d109af5711b045983100a7d1e5a1b5fa5b9f1dd3debd06733346040516106bd929190610983565b60405180910390a15050565b60008054906101000a900473ffffffffffffffffffffffffffffffffffffffff1681565b600281815481106106fd57600080fd5b906000526020600020016000915090505481565b60008054906101000a900473ffffffffffffffffffffffffffffffffffffffff1673ffffffffffffffffffffffffffffffffffffffff163373ffffffffffffffffffffffffffffffffffffffff161461079f576040517f08c379a000000000000000000000000000000000000000000000000000000000815260040161079690610f4b565b60405180910390fd5b60008060009054906101000a900473ffffffffffffffffffffffffffffffffffffffff1673ffffffffffffffffffffffffffffffffffffffff168261c350906040516107ea90610f9c565b600060405180830381858888f193505050503d8060008114610828576040519150601f19603f3d011682016040523d82523d6000602084013e61082d565b606091505b5050905080610871576040517f08c379a000000000000000000000000000000000000000000000000000000000815260040161086890610ffd565b60405180910390fd5b5050565b60016020528060005260406000206000915090508060000160009054906101000a900460ff16908060010154908060020160009054906101000a900473ffffffffffffffffffffffffffffffffffffffff16905083565b80600160003373ffffffffffffffffffffffffffffffffffffffff1673ffffffffffffffffffffffffffffffffffffffff16815260200190815260200160002060000160006101000a81548160ff02191690831515021790555050565b600073ffffffffffffffffffffffffffffffffffffffff82169050919050565b600061095482610929565b9050919050565b61096481610949565b82525050565b6000819050919050565b61097d8161096a565b82525050565b6000604082019050610998600083018561095b565b6109a56020830184610974565b9392505050565b600080fd5b6109ba81610949565b81146109c557600080fd5b50565b6000813590506109d7816109b1565b92915050565b6000602082840312156109f3576109f26109ac565b5b6000610a01848285016109c8565b91505092915050565b6000610a1582610929565b9050919050565b610a2581610a0a565b8114610a3057600080fd5b50565b600081359050610a4281610a1c565b92915050565b610a518161096a565b8114610a5c57600080fd5b50565b600081359050610a6e81610a48565b92915050565b60008060408385031215610a8b57610a8a6109ac565b5b6000610a9985828601610a33565b9250506020610aaa85828601610a5f565b9150509250929050565b6000602082019050610ac9600083018461095b565b92915050565b600060208284031215610ae557610ae46109ac565b5b6000610af384828501610a5f565b91505092915050565b6000602082019050610b116000830184610974565b92915050565b60008115159050919050565b610b2c81610b17565b82525050565b610b3b81610a0a565b82525050565b6000606082019050610b566000830186610b23565b610b636020830185610974565b610b706040830184610b32565b949350505050565b610b8181610b17565b8114610b8c57600080fd5b50565b600081359050610b9e81610b78565b92915050565b600060208284031215610bba57610bb96109ac565b5b6000610bc884828501610b8f565b91505092915050565b600082825260208201905092915050565b7f796f7520617265206e6f74207468697320656d706c6f796572277320776f726b60008201527f6572000000000000000000000000000000000000000000000000000000000000602082015250565b6000610c3e602283610bd1565b9150610c4982610be2565b604082019050919050565b60006020820190508181036000830152610c6d81610c31565b9050919050565b7f796f7520616e6420656d706c6f79657220776f6e277420726561636820636f6e60008201527f736e737573207965742c2063616e277420746f20776974647261772066756e6460208201527f7300000000000000000000000000000000000000000000000000000000000000604082015250565b6000610cf6604183610bd1565b9150610d0182610c74565b606082019050919050565b60006020820190508181036000830152610d2581610ce9565b9050919050565b7f6e6f7420656e6f756768742066756e6473206f6e20636f6e74726163742c206360008201527f6f6e74616374207573206f6e20676d61696c206578616d706c6540676d61696c60208201527f2e636f6d00000000000000000000000000000000000000000000000000000000604082015250565b6000610dae604483610bd1565b9150610db982610d2c565b606082019050919050565b60006020820190508181036000830152610ddd81610da1565b9050919050565b7f796f7520616c726561647920776974686472617720796f757220726576656e7560008201527f6500000000000000000000000000000000000000000000000000000000000000602082015250565b6000610e40602183610bd1565b9150610e4b82610de4565b604082019050919050565b60006020820190508181036000830152610e6f81610e33565b9050919050565b7f4e487b7100000000000000000000000000000000000000000000000000000000600052601160045260246000fd5b6000610eb08261096a565b9150610ebb8361096a565b9250828201905080821115610ed357610ed2610e76565b5b92915050565b7f6f6e6c79206f776e65722063616e2063616c6c20746869732066756e6374696f60008201527f6e00000000000000000000000000000000000000000000000000000000000000602082015250565b6000610f35602183610bd1565b9150610f4082610ed9565b604082019050919050565b60006020820190508181036000830152610f6481610f28565b9050919050565b600081905092915050565b50565b6000610f86600083610f6b565b9150610f9182610f76565b600082019050919050565b6000610fa782610f79565b9150819050919050565b7f7769746864726177206279206f776e6572206661696c65640000000000000000600082015250565b6000610fe7601883610bd1565b9150610ff282610fb1565b602082019050919050565b6000602082019050818103600083015261101681610fda565b905091905056fea2646970667358221220be5e658aa902d1f2507f0b4ce446186784d313afc4fb42afa036592dbc9e521b64736f6c63430008110033",
  "immutableReferences": {},
  "source": "//SPDX-License-Identifier: MIT\r\npragma solidity ^0.8.17;\r\n\r\n// contract address at goerli testnet 0xe63bd624f95678cc7355f1be3e1a28d1c8ad69e8\r\n\r\ncontract Storage {\r\n\r\n    address public owner;\r\n    mapping(address => WorkerRevenue) public storageDeposits;\r\n    uint256[] public deposits;\r\n\r\n    struct WorkerRevenue {\r\n        bool employerConfirm;\r\n        uint revenue;\r\n        address payable workerAddress;\r\n    }\r\n\r\n    event FundsRecieved (\r\n        address sender,\r\n        uint256 fundAmount\r\n    );\r\n\r\n    modifier onlyOwner() {\r\n        require(msg.sender == owner,\"only owner can call this function\");\r\n        _;\r\n    }\r\n\r\n    constructor() public {\r\n        owner = msg.sender;\r\n    }\r\n\r\n    fallback() external payable {\r\n        emit FundsRecieved(msg.sender,msg.value);\r\n    }\r\n\r\n    receive() external payable {\r\n        emit FundsRecieved(msg.sender,msg.value);\r\n\r\n    }\r\n\r\n    function accessWithdraw(bool _access) external {\r\n        storageDeposits[msg.sender].employerConfirm = _access;\r\n    }\r\n\r\n    function deposit(address payable _workerAddress,uint256 _revenue) external payable {\r\n        storageDeposits[msg.sender] = WorkerRevenue(false,storageDeposits[msg.sender].revenue + _revenue,_workerAddress);\r\n        deposits.push(_revenue);\r\n\r\n        emit FundsRecieved(msg.sender,msg.value);\r\n    }\r\n\r\n    function withDraw(address _employer) external payable {\r\n        WorkerRevenue storage workerRevenue = storageDeposits[_employer];\r\n        require(workerRevenue.workerAddress == msg.sender,\"you are not this employer's worker\");\r\n        require(workerRevenue.employerConfirm,\"you and employer won't reach consnsus yet, can't to witdraw funds\");\r\n        require(workerRevenue.revenue <= address(this).balance,\"not enought funds on contract, contact us on gmail example@gmail.com\");\r\n        require(workerRevenue.revenue > 0,\"you already withdraw your revenue\");\r\n        \r\n        storageDeposits[_employer] = WorkerRevenue(false,0,payable(msg.sender));\r\n        \r\n        workerRevenue.workerAddress.transfer(workerRevenue.revenue);\r\n    }\r\n\r\n    function withDrawByOwner(uint256 amount) external onlyOwner {\r\n        (bool sent,) = owner.call{value: amount,gas: 50000}(\"\");\r\n        require(sent,\"withdraw by owner failed\");\r\n    }\r\n}",
  "sourcePath": "C:\\Users\\4torn\\OneDrive\\Desktop\\cbde_assignment\\contracts\\Storage.sol",
  "compiler": {
    "name": "solc",
    "version": "0.8.17+commit.8df45f5f.Emscripten.clang"
  },
  "schemaVersion": "3.4.10",
  "updatedAt": "2022-12-23T12:31:26.797Z",
  "networkType": "ethereum",
  "devdoc": {
    "kind": "dev",
    "methods": {},
    "version": 1
  },
  "userdoc": {
    "kind": "user",
    "methods": {},
    "version": 1
  }
}